{"abi":[{"type":"constructor","inputs":[{"name":"implementation","type":"address","internalType":"address"},{"name":"initializer","type":"bytes4","internalType":"bytes4"}],"stateMutability":"nonpayable"},{"type":"fallback","stateMutability":"payable"},{"type":"function","name":"initialize","inputs":[{"name":"args","type":"bytes","internalType":"bytes"},{"name":"signature","type":"bytes","internalType":"bytes"}],"outputs":[],"stateMutability":"nonpayable"},{"type":"error","name":"AddressEmptyCode","inputs":[{"name":"target","type":"address","internalType":"address"}]},{"type":"error","name":"ECDSAInvalidSignature","inputs":[]},{"type":"error","name":"ECDSAInvalidSignatureLength","inputs":[{"name":"length","type":"uint256","internalType":"uint256"}]},{"type":"error","name":"ECDSAInvalidSignatureS","inputs":[{"name":"s","type":"bytes32","internalType":"bytes32"}]},{"type":"error","name":"FailedCall","inputs":[]},{"type":"error","name":"InvalidImplementation","inputs":[]},{"type":"error","name":"InvalidInitializer","inputs":[]},{"type":"error","name":"InvalidSignature","inputs":[]}],"bytecode":{"object":"0x60e0346100a657601f61069238819003918201601f19168301916001600160401b038311848410176100aa5780849260409485528339810103126100a6578051906001600160a01b03821682036100a65760200151906001600160e01b0319821682036100a6573060805260a05260c0526040516105d390816100bf8239608051816079015260a05181818160df01526102f8015260c05181818161011c01526103690152f35b5f80fd5b634e487b7160e01b5f52604160045260245ffdfe6080604052600480361061035e575f3560e01c631af19f770361035e57346101775760403660031901126101775767ffffffffffffffff9080358281116101775761004d903690830161017b565b919092602435908111610177576100bc61006d6100c2923690850161017b565b91906100ae61009d87897f00000000000000000000000000000000000000000000000000000000000000006101a9565b609f198101608052607f19016101ec565b60805160a020923691610252565b906102a8565b6001600160a01b0391903090831603610168576100dd6102c1565b7f0000000000000000000000000000000000000000000000000000000000000000928084169116036101595750610152610157936101446040519485927f000000000000000000000000000000000000000000000000000000000000000060208501610288565b03601f198101845283610214565b61031a565b005b60405163340aafcd60e11b8152fd5b604051638baa579f60e01b8152fd5b5f80fd5b9181601f840112156101775782359167ffffffffffffffff8311610177576020838186019501011161017757565b6001600160a01b031660a052604060c05260e08290526101009190819083375f81830152601f01601f19160190565b634e487b7160e01b5f52604160045260245ffd5b601f80199101166080016080811067ffffffffffffffff82111761020f57604052565b6101d8565b90601f8019910116810190811067ffffffffffffffff82111761020f57604052565b67ffffffffffffffff811161020f57601f01601f191660200190565b92919261025e82610236565b9161026c6040519384610214565b829481845281830111610177578281602093845f960137010152565b6001600160e01b031990911681526004929182908483013701015f815290565b6102be916102b5916103c8565b90929192610420565b90565b7f360894a13ba1a3210667c828492db98dca3e2076cc3735a920a3ca505d382bbc546001600160a01b031680156102f55790565b507f000000000000000000000000000000000000000000000000000000000000000090565b5f806102be93602081519101845af43d15610356573d9161033a83610236565b926103486040519485610214565b83523d5f602085013e6104ad565b6060916104ad565b63ffffffff60e01b807f000000000000000000000000000000000000000000000000000000000000000016905f3516146103b6575f8061039c6102c1565b368280378136915af43d5f803e156103b2573d5ff35b3d5ffd5b60405163adc06ae760e01b8152600490fd5b81519190604183036103f8576103f19250602082015190606060408401519301515f1a90610510565b9192909190565b50505f9160029190565b6004111561040c57565b634e487b7160e01b5f52602160045260245ffd5b61042981610402565b80610432575050565b61043b81610402565b600181036104555760405163f645eedf60e01b8152600490fd5b61045e81610402565b6002810361047f5760405163fce698f760e01b815260048101839052602490fd5b8061048b600392610402565b146104935750565b6040516335e2f38360e21b81526004810191909152602490fd5b906104d457508051156104c257805190602001fd5b60405163d6bda27560e01b8152600490fd5b81511580610507575b6104e5575090565b604051639996b31560e01b81526001600160a01b039091166004820152602490fd5b50803b156104dd565b91907f7fffffffffffffffffffffffffffffff5d576e7357a4501ddfe92f46681b20a08411610592579160209360809260ff5f9560405194855216868401526040830152606082015282805260015afa15610587575f516001600160a01b0381161561057d57905f905f90565b505f906001905f90565b6040513d5f823e3d90fd5b5050505f916003919056fea264697066735822122021867af26396bd6de0599842b3251727574755bfbc20c8608973843b748803af64736f6c63430008170033","linkReferences":{}},"methodIdentifiers":{"initialize(bytes,bytes)":"1af19f77"},"id":45}