{"abi":[{"type":"constructor","inputs":[],"stateMutability":"nonpayable"},{"type":"fallback","stateMutability":"payable"},{"type":"receive","stateMutability":"payable"},{"type":"function","name":"REPLAYABLE_NONCE_KEY","inputs":[],"outputs":[{"name":"","type":"uint256","internalType":"uint256"}],"stateMutability":"view"},{"type":"function","name":"addOwnerAddress","inputs":[{"name":"owner","type":"address","internalType":"address"}],"outputs":[],"stateMutability":"nonpayable"},{"type":"function","name":"addOwnerPublicKey","inputs":[{"name":"x","type":"bytes32","internalType":"bytes32"},{"name":"y","type":"bytes32","internalType":"bytes32"}],"outputs":[],"stateMutability":"nonpayable"},{"type":"function","name":"canSkipChainIdValidation","inputs":[{"name":"functionSelector","type":"bytes4","internalType":"bytes4"}],"outputs":[{"name":"","type":"bool","internalType":"bool"}],"stateMutability":"pure"},{"type":"function","name":"domainSeparator","inputs":[],"outputs":[{"name":"","type":"bytes32","internalType":"bytes32"}],"stateMutability":"view"},{"type":"function","name":"eip712Domain","inputs":[],"outputs":[{"name":"fields","type":"bytes1","internalType":"bytes1"},{"name":"name","type":"string","internalType":"string"},{"name":"version","type":"string","internalType":"string"},{"name":"chainId","type":"uint256","internalType":"uint256"},{"name":"verifyingContract","type":"address","internalType":"address"},{"name":"salt","type":"bytes32","internalType":"bytes32"},{"name":"extensions","type":"uint256[]","internalType":"uint256[]"}],"stateMutability":"view"},{"type":"function","name":"entryPoint","inputs":[],"outputs":[{"name":"","type":"address","internalType":"address"}],"stateMutability":"view"},{"type":"function","name":"execute","inputs":[{"name":"target","type":"address","internalType":"address"},{"name":"value","type":"uint256","internalType":"uint256"},{"name":"data","type":"bytes","internalType":"bytes"}],"outputs":[],"stateMutability":"payable"},{"type":"function","name":"executeBatch","inputs":[{"name":"calls","type":"tuple[]","internalType":"struct CoinbaseSmartWallet.Call[]","components":[{"name":"target","type":"address","internalType":"address"},{"name":"value","type":"uint256","internalType":"uint256"},{"name":"data","type":"bytes","internalType":"bytes"}]}],"outputs":[],"stateMutability":"payable"},{"type":"function","name":"executeWithoutChainIdValidation","inputs":[{"name":"calls","type":"bytes[]","internalType":"bytes[]"}],"outputs":[],"stateMutability":"payable"},{"type":"function","name":"getUserOpHashWithoutChainId","inputs":[{"name":"userOp","type":"tuple","internalType":"struct UserOperation","components":[{"name":"sender","type":"address","internalType":"address"},{"name":"nonce","type":"uint256","internalType":"uint256"},{"name":"initCode","type":"bytes","internalType":"bytes"},{"name":"callData","type":"bytes","internalType":"bytes"},{"name":"callGasLimit","type":"uint256","internalType":"uint256"},{"name":"verificationGasLimit","type":"uint256","internalType":"uint256"},{"name":"preVerificationGas","type":"uint256","internalType":"uint256"},{"name":"maxFeePerGas","type":"uint256","internalType":"uint256"},{"name":"maxPriorityFeePerGas","type":"uint256","internalType":"uint256"},{"name":"paymasterAndData","type":"bytes","internalType":"bytes"},{"name":"signature","type":"bytes","internalType":"bytes"}]}],"outputs":[{"name":"","type":"bytes32","internalType":"bytes32"}],"stateMutability":"view"},{"type":"function","name":"implementation","inputs":[],"outputs":[{"name":"$","type":"address","internalType":"address"}],"stateMutability":"view"},{"type":"function","name":"initialize","inputs":[{"name":"owners","type":"bytes[]","internalType":"bytes[]"}],"outputs":[],"stateMutability":"payable"},{"type":"function","name":"isOwnerAddress","inputs":[{"name":"account","type":"address","internalType":"address"}],"outputs":[{"name":"","type":"bool","internalType":"bool"}],"stateMutability":"view"},{"type":"function","name":"isOwnerBytes","inputs":[{"name":"account","type":"bytes","internalType":"bytes"}],"outputs":[{"name":"","type":"bool","internalType":"bool"}],"stateMutability":"view"},{"type":"function","name":"isOwnerPublicKey","inputs":[{"name":"x","type":"bytes32","internalType":"bytes32"},{"name":"y","type":"bytes32","internalType":"bytes32"}],"outputs":[{"name":"","type":"bool","internalType":"bool"}],"stateMutability":"view"},{"type":"function","name":"isValidSignature","inputs":[{"name":"hash","type":"bytes32","internalType":"bytes32"},{"name":"signature","type":"bytes","internalType":"bytes"}],"outputs":[{"name":"result","type":"bytes4","internalType":"bytes4"}],"stateMutability":"view"},{"type":"function","name":"nextOwnerIndex","inputs":[],"outputs":[{"name":"","type":"uint256","internalType":"uint256"}],"stateMutability":"view"},{"type":"function","name":"ownerAtIndex","inputs":[{"name":"index","type":"uint256","internalType":"uint256"}],"outputs":[{"name":"","type":"bytes","internalType":"bytes"}],"stateMutability":"view"},{"type":"function","name":"ownerCount","inputs":[],"outputs":[{"name":"","type":"uint256","internalType":"uint256"}],"stateMutability":"view"},{"type":"function","name":"proxiableUUID","inputs":[],"outputs":[{"name":"","type":"bytes32","internalType":"bytes32"}],"stateMutability":"view"},{"type":"function","name":"removeLastOwner","inputs":[{"name":"index","type":"uint256","internalType":"uint256"},{"name":"owner","type":"bytes","internalType":"bytes"}],"outputs":[],"stateMutability":"nonpayable"},{"type":"function","name":"removeOwnerAtIndex","inputs":[{"name":"index","type":"uint256","internalType":"uint256"},{"name":"owner","type":"bytes","internalType":"bytes"}],"outputs":[],"stateMutability":"nonpayable"},{"type":"function","name":"removedOwnersCount","inputs":[],"outputs":[{"name":"","type":"uint256","internalType":"uint256"}],"stateMutability":"view"},{"type":"function","name":"replaySafeHash","inputs":[{"name":"hash","type":"bytes32","internalType":"bytes32"}],"outputs":[{"name":"","type":"bytes32","internalType":"bytes32"}],"stateMutability":"view"},{"type":"function","name":"upgradeToAndCall","inputs":[{"name":"newImplementation","type":"address","internalType":"address"},{"name":"data","type":"bytes","internalType":"bytes"}],"outputs":[],"stateMutability":"payable"},{"type":"function","name":"validateUserOp","inputs":[{"name":"userOp","type":"tuple","internalType":"struct UserOperation","components":[{"name":"sender","type":"address","internalType":"address"},{"name":"nonce","type":"uint256","internalType":"uint256"},{"name":"initCode","type":"bytes","internalType":"bytes"},{"name":"callData","type":"bytes","internalType":"bytes"},{"name":"callGasLimit","type":"uint256","internalType":"uint256"},{"name":"verificationGasLimit","type":"uint256","internalType":"uint256"},{"name":"preVerificationGas","type":"uint256","internalType":"uint256"},{"name":"maxFeePerGas","type":"uint256","internalType":"uint256"},{"name":"maxPriorityFeePerGas","type":"uint256","internalType":"uint256"},{"name":"paymasterAndData","type":"bytes","internalType":"bytes"},{"name":"signature","type":"bytes","internalType":"bytes"}]},{"name":"userOpHash","type":"bytes32","internalType":"bytes32"},{"name":"missingAccountFunds","type":"uint256","internalType":"uint256"}],"outputs":[{"name":"validationData","type":"uint256","internalType":"uint256"}],"stateMutability":"nonpayable"},{"type":"event","name":"AddOwner","inputs":[{"name":"index","type":"uint256","indexed":true,"internalType":"uint256"},{"name":"owner","type":"bytes","indexed":false,"internalType":"bytes"}],"anonymous":false},{"type":"event","name":"RemoveOwner","inputs":[{"name":"index","type":"uint256","indexed":true,"internalType":"uint256"},{"name":"owner","type":"bytes","indexed":false,"internalType":"bytes"}],"anonymous":false},{"type":"event","name":"Upgraded","inputs":[{"name":"implementation","type":"address","indexed":true,"internalType":"address"}],"anonymous":false},{"type":"error","name":"AlreadyOwner","inputs":[{"name":"owner","type":"bytes","internalType":"bytes"}]},{"type":"error","name":"Initialized","inputs":[]},{"type":"error","name":"InvalidEthereumAddressOwner","inputs":[{"name":"owner","type":"bytes","internalType":"bytes"}]},{"type":"error","name":"InvalidNonceKey","inputs":[{"name":"key","type":"uint256","internalType":"uint256"}]},{"type":"error","name":"InvalidOwnerBytesLength","inputs":[{"name":"owner","type":"bytes","internalType":"bytes"}]},{"type":"error","name":"LastOwner","inputs":[]},{"type":"error","name":"NoOwnerAtIndex","inputs":[{"name":"index","type":"uint256","internalType":"uint256"}]},{"type":"error","name":"NotLastOwner","inputs":[{"name":"ownersRemaining","type":"uint256","internalType":"uint256"}]},{"type":"error","name":"SelectorNotAllowed","inputs":[{"name":"selector","type":"bytes4","internalType":"bytes4"}]},{"type":"error","name":"Unauthorized","inputs":[]},{"type":"error","name":"UnauthorizedCallContext","inputs":[]},{"type":"error","name":"UpgradeFailed","inputs":[]},{"type":"error","name":"WrongOwnerAtIndex","inputs":[{"name":"index","type":"uint256","internalType":"uint256"},{"name":"expectedOwner","type":"bytes","internalType":"bytes"},{"name":"actualOwner","type":"bytes","internalType":"bytes"}]}],"bytecode":{"object":"0x60a06040818152346200040557306080526200001b8262000409565b6001918281525f5b602080821015620000405790606060209282850101520162000023565b5050828251906020915f838201528281526200005c8162000409565b620000678462000425565b52620000738362000425565b50807f97e2c6aad4ce5d562ebfaa00db6b9e0fb66ea5d8162ed5b243f51a2e03086f00928354945f935b620000c6575b505050505551612d339081620004f5823960805181818161075501526108780152f35b8096959694939451851015620003f95781620000e3868362000447565b5151141580620003e1575b620003b6578162000100868362000447565b5151148062000377575b6200034c576200011b858262000447565b5194875f1998898114620003385785019660ff6200013982620004ad565b541662000316576200014b81620004ad565b805460ff1916871790555f8281527f97e2c6aad4ce5d562ebfaa00db6b9e0fb66ea5d8162ed5b243f51a2e03086f02865289902081516001600160401b038111620003025781549b888d811c9d168015620002f5575b888e1014620002e157601f808e116200029b575b899a9b9c9d50889083116001146200021d57928262000206938b989796935f8051602062003228833981519152965f9262000211575b50828a1b9260031b1c19161790555b8c51918291826200047f565b0390a201936200009d565b85015191505f620001eb565b90601f19831691845f52895f20925f5b818110620002835750938b989796935f805160206200322883398151915296938a93836200020698106200026a575b505050811b019055620001fa565b8601519060f88460031b161c191690555f80806200025c565b8288015185558d9c90940193918b01918b016200022d565b835f52885f206005828501811c82019f8b8610620002d6575b8301901c019d8e5b8110620002ca5750620001b5565b5f81558a018e620002bc565b919f508f91620002b4565b634e487b7160e01b5f52602260045260245ffd5b607f899e169d50620001a1565b634e487b7160e01b5f52604160045260245ffd5b885163468b12ad60e11b81529081906200033490600483016200047f565b0390fd5b634e487b7160e01b5f52601160045260245ffd5b856200035d86620003349362000447565b51905163bff1ac6560e01b8152918291600483016200047f565b5062000384858262000447565b5182815191015190838110620003a5575b506001600160a01b03106200010a565b5f1990840360031b1b168862000395565b85620003c786620003349362000447565b5190516327755b9160e11b8152918291600483016200047f565b5085620003ef868362000447565b51511415620000ee565b839450959495620000a3565b5f80fd5b604081019081106001600160401b038211176200030257604052565b805115620004335760200190565b634e487b7160e01b5f52603260045260245ffd5b8051821015620004335760209160051b010190565b5f5b8381106200046e5750505f910152565b81810151838201526020016200045e565b60409160208252620004a181518092816020860152602086860191016200045c565b601f01601f1916010190565b6020620004c89181604051938285809451938492016200045c565b81017f97e2c6aad4ce5d562ebfaa00db6b9e0fb66ea5d8162ed5b243f51a2e03086f038152030190209056fe6080604052600436101561001e575b361561001c5761001c611307565b005b5f3560e01c8063066a1eb7146101cd5780630db02622146101c85780630f0f3f24146101c35780631626ba7e146101be5780631ca5393f146101b957806329565e3b146101b45780632c2abd1e146101af57806334fcd5be146101aa57806336d9cf9b146101a55780633a871cdd146101a05780634f1ef2861461019b5780634f6e7f221461019657806352d1902d146101915780635c60da1b1461018c5780636f2de70e1461018757806384b0196e1461018257806388ce4c7c1461017d57806389625b57146101785780638ea69029146101735780639f9bcb341461016e578063a2e1a8d814610169578063b0d691fe14610164578063b61d27f61461015f578063b81973671461015a578063ce1506be14610155578063d948fd2e146101505763f698da250361000e57610cfc565b610cd3565b610cb5565b610c6a565b610bf3565b610bc5565b610b9e565b610b64565b610b31565b610adf565b610a90565b6109f1565b61090d565b6108c6565b610865565b61082b565b610719565b61068f565b610657565b6105c1565b610512565b610486565b61044f565b6102f5565b610260565b61022d565b3461022957604036600319011261022957602060ff61021d6040516102188161020a60243560043588840160209093929193604081019481520152565b03601f1981018352826103b0565b610d2d565b54166040519015158152f35b5f80fd5b34610229575f366003190112610229576020610247610da6565b604051908152f35b6001600160a01b0381160361022957565b346102295760203660031901126102295761001c6004356102808161024f565b610288611333565b6040519060018060a01b03166020820152602081526102a68161035a565b5f80516020612cde833981519152908154916102c183610dd0565b90556113ba565b9181601f84011215610229578235916001600160401b038311610229576020838186019501011161022957565b34610229576040366003190112610229576024356001600160401b0381116102295761033361032a60209236906004016102c8565b90600435610dde565b6040516001600160e01b03199091168152f35b634e487b7160e01b5f52604160045260245ffd5b604081019081106001600160401b0382111761037557604052565b610346565b60c081019081106001600160401b0382111761037557604052565b606081019081106001600160401b0382111761037557604052565b90601f801991011681019081106001600160401b0382111761037557604052565b604051906103de8261037a565b565b6001600160401b03811161037557601f01601f191660200190565b929192610407826103e0565b9161041560405193846103b0565b829481845281830111610229578281602093845f960137010152565b9080601f830112156102295781602061044c933591016103fb565b90565b34610229576020366003190112610229576004356001600160401b0381116102295760ff61021d6102186020933690600401610431565b346102295760403660031901126102295761049f611333565b6040805160043560208201526024359181019190915261001c906102a6816060810161020a565b906020600319830112610229576004356001600160401b039283821161022957806023830112156102295781600401359384116102295760248460051b83010111610229576024019190565b61051b366104c6565b90735ff137d4b0fdcd49dca30c7cf57e578a026d278933036105b0575f5b82811061054257005b6105518160051b830183610e20565b61055b8183610e52565b610564816111f5565b15610588575061057c600193926105829236916103fb565b306117e3565b01610539565b604051631d8370a360e11b81526001600160e01b0319919091166004820152602490fd5b0390fd5b6040516282b42960e81b8152600490fd5b6105ca366104c6565b90735ff137d4b0fdcd49dca30c7cf57e578a026d2789330361064a575b5f5b8281106105f257005b806106446106036001938686610e7e565b3561060d8161024f565b602061061a848888610e7e565b013561063e61063761062d868a8a610e7e565b6040810190610e20565b36916103fb565b9161180a565b016105e9565b610652611333565b6105e7565b34610229575f3660031901126102295760205f80516020612c9e83398151915254604051908152f35b90816101609103126102295790565b34610229576060366003190112610229576004356001600160401b038111610229576106bf903690600401610680565b604435735ff137d4b0fdcd49dca30c7cf57e578a026d278933036105b057806106ee6107059360243590610ea5565b91610709575b506040519081529081906020820190565b0390f35b5f9081803892335af1505f6106f4565b6040366003190112610229576004356107318161024f565b6024356001600160401b038111610229576107509036906004016102c8565b9091307f00000000000000000000000000000000000000000000000000000000000000001461081e57610781611333565b60018060a01b03166352d1902d6001527f360894a13ba1a3210667c828492db98dca3e2076cc3735a920a3ca505d382bbc80602060016004601d865afa510361081057818391817fbc7cd75a20ee27fd9adebab32041f755214dbc6bffa90cc0225b39da2e5c2d3b5f80a2556107f357005b815f926040519485378338925af41561080857005b3d5f823e3d90fd5b6355299b496001526004601dfd5b639f03a0265f526004601cfd5b34610229576020366003190112610229576004356001600160401b038111610229576102476108606020923690600401610680565b610f4b565b34610229575f36600319011261022957307f00000000000000000000000000000000000000000000000000000000000000000361081e5760206040517f360894a13ba1a3210667c828492db98dca3e2076cc3735a920a3ca505d382bbc8152f35b34610229575f366003190112610229577f360894a13ba1a3210667c828492db98dca3e2076cc3735a920a3ca505d382bbc546040516001600160a01b039091168152602090f35b610916366104c6565b5f80516020612cde83398151915254610999576001600160401b03808211610375578160051b926020936040519361095160208301866103b0565b845260208401908201923684116102295782915b8483106109755761001c86611834565b823582811161022957879161098e839236908801610431565b815201920191610965565b6040516302ed543d60e51b8152600490fd5b5f5b8381106109bc5750505f910152565b81810151838201526020016109ad565b906020916109e5815180928185528580860191016109ab565b601f01601f1916010190565b34610229575f36600319011261022957610a3f610a0c611942565b90604051928392600f60f81b8452610a3160209360e0602087015260e08601906109cc565b9084820360408601526109cc565b904660608401523060808401525f60a084015282820360c084015260206060519283815201916080915f5b828110610a7957505050500390f35b835185528695509381019392810192600101610a6a565b34610229575f3660031901126102295760206040516121058152f35b9060406003198301126102295760043591602435906001600160401b03821161022957610adb916004016102c8565b9091565b3461022957610aed36610aac565b90610af6611333565b6001610b00610da6565b14610b0e5761001c92611a83565b60405163948bf89760e01b8152600490fd5b90602061044c9281815201906109cc565b3461022957602036600319011261022957610705610b50600435611141565b6040519182916020835260208301906109cc565b34610229576020366003190112610229576004356001600160e01b03198116810361022957610b946020916111f5565b6040519015158152f35b34610229576020366003190112610229576020610b94600435610bc08161024f565b611277565b34610229575f366003190112610229576020604051735ff137d4b0fdcd49dca30c7cf57e578a026d27898152f35b606036600319011261022957600435610c0b8161024f565b604435906001600160401b03821161022957610c53610c3161001c9336906004016102c8565b735ff137d4b0fdcd49dca30c7cf57e578a026d27893303610c5d5736916103fb565b906024359061180a565b610c65611333565b610637565b3461022957610c7836610aac565b90610c81611333565b610c89610da6565b9260018411610c9c5761001c9350611a83565b604051631047e35560e31b815260048101859052602490fd5b34610229576020366003190112610229576020610247600435611ba3565b34610229575f3660031901126102295760205f80516020612cde83398151915254604051908152f35b34610229575f3660031901126102295760206102476112a0565b90610d29602092828151948592016109ab565b0190565b6020610d469181604051938285809451938492016109ab565b81017f97e2c6aad4ce5d562ebfaa00db6b9e0fb66ea5d8162ed5b243f51a2e03086f0381520301902090565b634e487b7160e01b5f52601160045260245ffd5b905f80516020612c5e833981519152918203918211610da157565b610d72565b5f80516020612cde833981519152545f80516020612c9e833981519152548103908111610da15790565b5f198114610da15760010190565b90610dec610df19392611ba3565b6116b8565b610e01576001600160e01b031990565b630b135d3f60e11b90565b634e487b7160e01b5f52603260045260245ffd5b903590601e198136030182121561022957018035906001600160401b0382116102295760200191813603831361022957565b6001600160e01b03199035818116939260048110610e6f57505050565b60040360031b82901b16169150565b9190811015610ea05760051b81013590605e1981360301821215610229570190565b610e0c565b602081013560401c91610ebb6060830183610e20565b6316155e8f60e11b916001600160e01b031991610ed791610e52565b1603610f335750610ee781610f4b565b916121058103610f19575090610f06610f0c925b610140810190610e20565b916116b8565b610f1557600190565b5f90565b604051632ef3781360e01b81526004810191909152602490fd5b916121058114610f19575090610f06610f0c92610efb565b610f61610f5b6040830183610e20565b906121ad565b90610f72610f5b6060830183610e20565b90611008610f87610f5b610120840184610e20565b6040805184356001600160a01b031660208083019182528601359282019290925260608101969096526080808701959095529383013560a08087019190915283013560c08087019190915283013560e08087019190915283013561010080870191909152909201356101208501526101408401919091528290610160820190565b039161101c601f19938481018352826103b0565b5190209061106360405191826110576020820195866020735ff137d4b0fdcd49dca30c7cf57e578a026d278991939293604081019481520152565b039081018352826103b0565b51902090565b90600182811c92168015611097575b602083101461108357565b634e487b7160e01b5f52602260045260245ffd5b91607f1691611078565b9060405191825f82546110b381611069565b908184526020946001916001811690815f1461111f57506001146110e1575b5050506103de925003836103b0565b5f90815285812095935091905b8183106111075750506103de93508201015f80806110d2565b855488840185015294850194879450918301916110ee565b925050506103de94925060ff191682840152151560051b8201015f80806110d2565b5f5260205f80516020612c7e833981519152815260405f209060405180925f90805461116c81611069565b808552916001918083169081156111d35750600114611195575b50505061044c925003826103b0565b5f90815285812095935091905b8183106111bb57505061044c93508201015f8080611186565b855487840185015294850194869450918301916111a2565b9250505061044c94925060ff191682840152151560051b8201015f8080611186565b63ffffffff60e01b166329565e3b60e01b8114908115611266575b8115611255575b8115611244575b8115611233575b5061122e575f90565b600190565b63278f794360e11b1490505f611225565b63b819736760e01b8114915061121e565b6389625b5760e01b81149150611217565b6303c3cfc960e21b81149150611210565b61129b60ff916040519060018060a01b03166020820152602081526102188161035a565b541690565b6112a8611942565b906020815191012090602081519101206040519060208201927f8b73c3c69bb8fe3d512ecc4cf759cc79239f7b179b0ffacaa9a75d522b39400f8452604083015260608201524660808201523060a082015260a081526110638161037a565b5f3560e01c63bc197c81811463f23a6e6182141763150b7a0282141761132a5750565b6020526020603cf35b61133c33611277565b8015611358575b6103de576040516282b42960e81b8152600490fd5b50303314611343565b81811061136c575050565b5f8155600101611361565b9190601f811161138657505050565b6103de925f5260205f20906020601f840160051c830193106113b0575b601f0160051c0190611361565b90915081906113a3565b60ff6113c582610d2d565b5416611529576113d481610d2d565b600190600160ff19825416179055825f526020905f80516020612c7e83398151915260205260405f20918351916001600160401b038311610375576114238361141d8654611069565b86611377565b602091601f841160011461149857505091611479827f38109edc26e166b5579352ce56a50813177eb25208fd90d61f2f3783862202209593611488955f9161148d575b508160011b915f199060031b1c19161790565b90555b60405191829182610b20565b0390a2565b90508401515f611466565b9190601f198416906114ad865f5260205f2090565b935f915b83831061151257505050926114889492600192827f38109edc26e166b5579352ce56a50813177eb25208fd90d61f2f3783862202209896106114fa575b5050811b01905561147c565b8501515f1960f88460031b161c191690555f806114ee565b8885015186559485019493810193918101916114b1565b60405163468b12ad60e11b8152602060048201529081906105ac9060248301906109cc565b906020828203126102295781356001600160401b03928382116102295701906040828203126102295760405192604084018481108282111761037557604052823584526020830135908111610229576115a79201610431565b602082015290565b6020815191015190602081106115c3575090565b5f199060200360031b1b1690565b9190826040910312610229576020825192015190565b81601f820112156102295780516115fd816103e0565b9261160b60405194856103b0565b818452602082840101116102295761044c91602080850191016109ab565b906020828203126102295781516001600160401b0392838211610229570160c081830312610229576116596103d1565b928151818111610229578361166f9184016115e7565b845260208201519081116102295760a09261168b9183016115e7565b6020840152604081015160408401526060810151606084015260808101516080840152015160a082015290565b91906116c69181019061154e565b906116d18251611141565b916020918284511461174b57835160408114611702576040516327755b9160e11b8152806105ac8760048301610b20565b9061174661173161171e878780809761044c9b010191016115d1565b9690950151848082518301019101611629565b6040519384019283529291829060200161020a565b611ddb565b92939290916001600160a01b03611761866115af565b11611777578061044c9495015192015191611c2a565b60405163bff1ac6560e01b8152806105ac8760048301610b20565b60405190602082018281106001600160401b03821117610375576040525f8252565b3d156117de573d906117c5826103e0565b916117d360405193846103b0565b82523d5f602084013e565b606090565b5f91829182602083519301915af16117f96117b4565b90156118025750565b602081519101fd5b915f928392602083519301915af16117f96117b4565b8051821015610ea05760209160051b010190565b905f80516020612cde833981519152545f5b835181101561192e5760208061185c8387611820565b5151141580611918575b6118f1576118748286611820565b515114806118cf575b6118a857806118a261189160019387611820565b519361189c81610dd0565b946113ba565b01611846565b6118b56105ac9185611820565b5160405163bff1ac6560e01b815291829160048301610b20565b506001600160a01b036118eb6118e58387611820565b516115af565b1161187d565b6105ac6118fe8387611820565b516040516327755b9160e11b815291829160048301610b20565b5060406119258387611820565b51511415611866565b505f80516020612cde833981519152559050565b60405161194e8161035a565b601581527410dbda5b98985cd94814db585c9d0815d85b1b195d605a1b60208201529060405161197d8161035a565b60018152603160f81b602082015290565b908060209392818452848401375f828201840152601f01601f1916010190565b929161044c94926119cc92855260606020860152606085019161198e565b9160408184039101526109cc565b60209082604051938492833781017f97e2c6aad4ce5d562ebfaa00db6b9e0fb66ea5d8162ed5b243f51a2e03086f0381520301902090565b600281901b91906001600160fe1b03811603610da157565b611a348154611069565b9081611a3e575050565b81601f5f9311600114611a4f575055565b908083918252611a6e601f60208420940160051c840160018501611361565b5555565b91602061044c93818152019161198e565b9190611aab611aa6845f525f80516020612c7e83398151915260205260405f2090565b6110a1565b805115611b8a5780516020820120611ac43685856103fb565b6020815191012003611b6b57509081611b0b611b01837fcf95bbfe6f870f8cc40482dc3dccdafd268f0e9ce0a4f24ea1bea9be64e505ff956119da565b805460ff19169055565b611b31611b2c855f525f80516020612c7e83398151915260205260405f2090565b611a2a565b611b5c611b4b5f80516020612c9e83398151915254610dd0565b5f80516020612c9e83398151915255565b61148860405192839283611a72565b60405163781f2e3960e01b81529384936105ac939091600486016119ae565b60405163340c473d60e11b815260048101859052602490fd5b611bab6112a0565b9060405160208101917f9b493d222105fee7df163ab5d57f0bf1ffd2da04dd5fafbe10b54c41c1adc6578352604082015260408152611be981610395565b51902060405190602082019261190160f01b84526022830152604282015260428152608081018181106001600160401b038211176103755760405251902090565b5f9392906001600160a01b031680611c4157505050565b90919293506040805191845f5260209283850151835282855114611ce3575b6041855114611ca9575b5f606052808352630b135d3f60e11b9485825260049687830152602482019687948552815186019081604493848601925afa503d01915afa9151141690565b6060808601515f1a85528386015181526001858160805f825afa5184183d151715611cd5575050611c6a565b5f9091529252509392505050565b8483015160ff81901c601b0185526001600160ff1b031660609081526001858160805f825afa5184183d151715611cd5575050611c60565b9060158201809211610da157565b9060028201809211610da157565b91908201809211610da157565b906103de602e60405180946c1131b430b63632b733b2911d1160991b6020830152611d79815180926020602d860191016109ab565b8101601160f91b602d82015203600e8101855201836103b0565b805160201015610ea05760400190565b6040513d5f823e3d90fd5b6020929190611dc48492828151948592016109ab565b019081520190565b90816020910312610229575190565b92919060a081017f7fffffff800000007fffffffffffffffde737d56d38bcf4279dce5617e3192a8815111611fd757602094858301907fff1a2a9176d650e4a99dedb58f1793003935130579fe17b5a3f698ac5b00e634611e4b83516060870151611e4581611d1b565b91611fe0565b88815191012003611fcc57611e6b611e7091611e65612062565b906121ea565b611d44565b611e8582516040860151611e45845182611d37565b8781519101209087815191012003611fc257600160f81b80611eb8611eaa8651611d93565b516001600160f81b03191690565b1603611fc2575f611ed187925160405191828092610d16565b039060025afa15611fbd575f51855f611f168551611ef6604051958692868401611dae565b0393611f0a601f19958681018352826103b0565b60405191828092610d16565b039060025afa15611fbd575f8060809481519586910193611f698551918b6110578c8c8b516040519788958601998a9192608093969594919660a084019784526020840152604083015260608201520152565b51906101005afa95611f796117b4565b9081519780611fb4575b611f9757505061044c9550519051916120c1565b600197611fb09750820181019550019250611dcc915050565b1490565b50871515611f83565b611da3565b5050505050505f90565b505050505050505f90565b50505050505f90565b80516060949392908381111561205a575b81811115612052575b5082811061200757505050565b60405192819003808452929450601f19929183910181601f840181165b80830151818901520190811561203c57908290612024565b50505f8583016020015250603f01168201604052565b90505f611ffa565b925082611ff1565b6040519061206f82610395565b604082527f6768696a6b6c6d6e6f707172737475767778797a303132333435363738392d5f6040837f4142434445464748494a4b4c4d4e4f505152535455565758595a61626364656660208201520152565b939190929383158015612196575b801561218e575b8015612177575b611fd7576120eb8386612291565b15611fd75760405191602083526020808401526020604084015260608301527fffffffff00000000ffffffffffffffffbce6faada7179e84f3b9cac2fc63254f60808301525f80516020612c5e833981519152948560a084015260208360c08160055f19fa1561022957612171938661216b945181818909940991612331565b91610d86565b90081590565b505f80516020612c5e8339815191528210156120dd565b5081156120d6565b505f80516020612c5e8339815191528410156120cf565b816040519182372090565b906121c2826103e0565b6121cf60405191826103b0565b82815280926121e0601f19916103e0565b0190602036910137565b805115612287576122156122106122096122048451611a12565b611d29565b6003900490565b6121b8565b916020830191808051019060208201928351945f85525b83831061223b57505050505290565b6004906003809401938451600190603f9082828260121c16880101518553828282600c1c16880101518386015382828260061c168801015160028601531685010151908201530161222c565b505061044c611792565b600160601b63ffffffff60c01b031990818110801590612327575b8015612316575b61230f577f5ac635d8aa3a93e7b3ebbd55769886bc651d06b0cc53b0f63bce3c3e27d2604b828281807fffffffff00000001000000000000000000000000fffffffffffffffffffffffc81960991818180090908089180091490565b5050505f90565b50801580156122b3575082156122b3565b50818310156122ac565b5f9260ff92909184831580612a23575b611fcc5761234f8383612a2b565b9095861580612a1b575b6129e0575b85811c60028a60fe1c16015b156129c757600186821c1660028a831c60011b16016001811461298f575b60028114612982575b600314612975575b5f9493929419019560019860015b885f19116124115750505050505050505060405191606083015260208252602080830152602060408301525f80516020612cbe8339815191526080830152600163ffffffff60601b0360601b19918260a082015260208160c08160055f19fa156102295751900990565b600163ffffffff60601b0360609a95969798999a1b198860020994600160601b63ffffffff60c01b0319868009600160601b63ffffffff60c01b031981830996600160601b63ffffffff60c01b03199082900991600160601b63ffffffff60c01b03199081908f8281830891600160601b63ffffffff60c01b031991820390080960030992600160601b63ffffffff60c01b03199083099c600160601b63ffffffff60c01b0319910995600160601b63ffffffff60c01b031980825f80516020612cbe83398151915209600160601b63ffffffff60c01b03198580090892600160601b63ffffffff60c01b031991829081038508900998600160601b63ffffffff60c01b0319908a908290840908988a8c1c600116848d1c60011b60021601156129575760018c600286838f841c16921c831b160114612921575b838c8c6002600182841c168185851c60011b16011461290e575b6003926001600292841c16921c60011b160114612905575b86156128f257600160601b63ffffffff60c01b0319908a9082908f90090890600160601b63ffffffff60c01b031990838203908290899009089581156126e7575b600160601b63ffffffff60c01b0319908188800990099b600160601b63ffffffff60c01b03199081888181800909900998600160601b63ffffffff60c01b0319908190818981818009099009600160601b63ffffffff60c01b03198381808080808e80098a095f80516020612cbe83398151915209600160601b63ffffffff60c01b0319808e8181800909600160601b63ffffffff60c01b0319908103908680090808600160601b63ffffffff60c01b031990810390808d8009890908090895600160601b63ffffffff60c01b031992839081908184800990095f80516020612cbe8339815191520991600160601b63ffffffff60c01b03199182908181800909600160601b63ffffffff60c01b03199081039180090808985b5f19019796939594936123a7565b866125bf57919a9198919550600160601b63ffffffff60c01b031990508080835f80516020612cbe83398151915209600160601b63ffffffff60c01b0319845f80516020612cbe83398151915209098b0999600160601b63ffffffff60c01b031990818a8103820890600160601b63ffffffff60c01b0319908b9008099a600160601b63ffffffff60c01b031990818080855f80516020612cbe83398151915209600160601b63ffffffff60c01b0319865f80516020612cbe8339815191520909600160601b63ffffffff60c01b0319855f80516020612cbe83398151915209090997600160601b63ffffffff60c01b0319908180845f80516020612cbe83398151915209600160601b63ffffffff60c01b0319855f80516020612cbe8339815191520909099a600160601b63ffffffff60c01b0319808c5f80516020612cbe83398151915209600160601b63ffffffff60c01b03198084600309600160601b63ffffffff60c01b03198560030909089a600160601b63ffffffff60c01b0319928390818080835f80516020612cbe83398151915209600160601b63ffffffff60c01b0319845f80516020612cbe8339815191520909600160601b63ffffffff60c01b0319835f80516020612cbe83398151915209090991600160601b63ffffffff60c01b03199182908e8203900890600160601b63ffffffff60c01b0319906003090908936126d9565b60019c50909a8c995090955090506126d9565b5050828461257e565b508993508a92508591508d90508c612566565b50505f80516020612c3e8339815191527f4fe342e2fe1a7f9b8ee7eb4a7c0f9e162bce33576b315ececbb6406837bf51f561254c565b50949a90999097600160601b63ffffffff60c01b03190394506126d9565b9150955084958091612399565b9397508793859350612391565b5f80516020612c3e83398151915298507f4fe342e2fe1a7f9b8ee7eb4a7c0f9e162bce33576b315ececbb6406837bf51f59350612388565b5f1901600160028188841c16918b841c901b160161236a565b9790945f80516020612c5e8339815191529182039008935f97851580612a13575b1561235e575050505050505050505f90565b506001612a01565b508115612359565b508615612341565b7f4fe342e2fe1a7f9b8ee7eb4a7c0f9e162bce33576b315ececbb6406837bf51f592915f80516020612c3e833981519152918115612b7f5780831480612b76575b15612b5f5750600160601b63ffffffff60c01b03199190508184600209918083800992818080808781818909950995817fffffffff00000001000000000000000000000000fffffffffffffffffffffffe816001840892080960030981808080865f80516020612cbe8339815191520981858009089981600181818b099a099709810393898203900890090893915b60405190602082526020808301526020604083015260608201525f80516020612cbe8339815191526080820152600163ffffffff60601b0360601b19928360a083015260208260c08160055f19fa1561022957838080935180950980099009930990565b909150612b6d929350612b85565b91939291612afb565b50818514612a6c565b50509190565b60019283927f94e82e0c1ed3bdb90743191a9c5bbf0d88fc827fd214cc5f0b5ec6ba27673d69600163ffffffff60601b0360601b198095818094817fb01cbd1c01e58065711814b583f061e9d431cca994cea1313449bf97c840ae0a9a8b9209089509089280808080878009968709948180885f80516020612c3e8339815191520991818080855f80516020612cbe83398151915209818b810381868009080893818a869d099482039008090894600109926001099056fe6b17d1f2e12c4247f8bce6e563a440f277037d812deb33a0f4a13945d898c296ffffffff00000000ffffffffffffffffbce6faada7179e84f3b9cac2fc63255197e2c6aad4ce5d562ebfaa00db6b9e0fb66ea5d8162ed5b243f51a2e03086f0297e2c6aad4ce5d562ebfaa00db6b9e0fb66ea5d8162ed5b243f51a2e03086f01ffffffff00000001000000000000000000000000fffffffffffffffffffffffd97e2c6aad4ce5d562ebfaa00db6b9e0fb66ea5d8162ed5b243f51a2e03086f00a2646970667358221220f577f60b9ed503b945bb7026a4129b406b572e177e5955fe985135ecd7cf60cb64736f6c6343000817003338109edc26e166b5579352ce56a50813177eb25208fd90d61f2f378386220220","linkReferences":{}},"methodIdentifiers":{"REPLAYABLE_NONCE_KEY()":"88ce4c7c","addOwnerAddress(address)":"0f0f3f24","addOwnerPublicKey(bytes32,bytes32)":"29565e3b","canSkipChainIdValidation(bytes4)":"9f9bcb34","domainSeparator()":"f698da25","eip712Domain()":"84b0196e","entryPoint()":"b0d691fe","execute(address,uint256,bytes)":"b61d27f6","executeBatch((address,uint256,bytes)[])":"34fcd5be","executeWithoutChainIdValidation(bytes[])":"2c2abd1e","getUserOpHashWithoutChainId((address,uint256,bytes,bytes,uint256,uint256,uint256,uint256,uint256,bytes,bytes))":"4f6e7f22","implementation()":"5c60da1b","initialize(bytes[])":"6f2de70e","isOwnerAddress(address)":"a2e1a8d8","isOwnerBytes(bytes)":"1ca5393f","isOwnerPublicKey(bytes32,bytes32)":"066a1eb7","isValidSignature(bytes32,bytes)":"1626ba7e","nextOwnerIndex()":"d948fd2e","ownerAtIndex(uint256)":"8ea69029","ownerCount()":"0db02622","proxiableUUID()":"52d1902d","removeLastOwner(uint256,bytes)":"b8197367","removeOwnerAtIndex(uint256,bytes)":"89625b57","removedOwnersCount()":"36d9cf9b","replaySafeHash(bytes32)":"ce1506be","upgradeToAndCall(address,bytes)":"4f1ef286","validateUserOp((address,uint256,bytes,bytes,uint256,uint256,uint256,uint256,uint256,bytes,bytes),bytes32,uint256)":"3a871cdd"},"id":48}